:100000000C94EA030C9431040C9431040C943104E4
:100010000C9431040C9431040C9431040C9431048C
:100020000C9431040C9431040C94942F0C944A2EAB
:100030000C9451260C9431040C9431040C9431042A
:100040000C9431040C9431040C9431040C9431045C
:100050000C9431040C94E9250C9431040C94310473
:100060000C9431040C9431040C9431040C9431043C
:100070000C9431040C9431040C9431040C9431042C
:100080000C9431040C9431040C9431040C9431041C
:100090000C9431040C9431040C9431040C9431040C
:1000A0000C9431040C9431040C9431042D1A2D1A43
:1000B0006A1A6A1ABA1A191D191D191DDA1AC81BEB
:1000C000DA1BDA1B191D6D1C7E23A5234525A523EC
:1000D0004525ED23102445250E252125E430E43067
:1000E000F730F730ED30F730F730F730E430E43008
:1000F000F230F730F730F23000AFB200000000000D
:10010000A80053415400550056005F006000610094
:1001100057005C005D005E00000059005A005B0063
:1001200058006200000063000000010000000000B1
:100130000100010001000100AA000100BE5C0100F5
:10014000A9000100BF5C010000000100BD5C0100CE
:10015000005C010000000100000005010980A10110
:1001600085031A81002A83001601002603009501E9
:1001700075108100C0050C0901A10185041A010058
:100180002A9C02160100269C02950175108100C070
:1001900005010906A1018505050719E029E71500F4
:1001A00025019508750181020507190029EF150041
:1001B000250195F0750181020508190129059505AC
:1001C00075019102950175039101C005010906A110
:1001D00001050719E029E71500250195087501813A
:1001E000029501750881010507190029FF150026F0
:1001F000FF00950675088100050819012905950578
:1002000075019102950175039101C009023B00023D
:100210000100A0FA090400000103010100092111F5
:100220000100012240000705810308000A090401BA
:1002300000010300000009211101000122710007E3
:1002400005820320000A1201100100000008EDFEE3
:100250006060010001020301040330000000060396
:100260006D007300000006036D00730000000403BE
:1002700009040000100000003E5B5F5B3E003E6B27
:100280006F6B3E001C3E7C3E1C00183C7E3C180000
:100290001C577D571C001C5E7F5E1C0000183C181C
:1002A0000000FFE7C3E7FF00001824180000FFE785
:1002B000DBE7FF0030483A060E00262979292600A0
:1002C000407F05050700407F05253F005A3CE73C7D
:1002D0005A007F3E1C1C0800081C1C3E7F00142294
:1002E0007F2214005F5F005F5F0006097F017F00CF
:1002F000006689956A0060606060600094A2FFA259
:10030000940008047E04080010207E2010000808D5
:100310002A1C0800081C2A0808001E1010101000D3
:100320000C1E0C1E0C0030383E383000060E3E0EFF
:10033000060000000000000000005F000000000751
:1003400000070000147F147F1400242A7F2A120063
:100350002313086462003649562050000008070342
:100360000000001C224100000041221C00002A1C49
:100370007F1C2A0008083E0808000080703000003A
:100380000808080808000000606000002010080449
:1003900002003E5149453E0000427F400000724944
:1003A000494946002141494D33001814127F10007D
:1003B0002745454539003C4A494931004121110949
:1003C0000700364949493600464949291E000000C0
:1003D0001400000000403400000000081422410016
:1003E00014141414140000412214080002015909C5
:1003F00006003E415D594E007C1211127C007F497F
:10040000494936003E41414122007F4141413E0081
:100410007F49494941007F09090901003E41415195
:1004200073007F0808087F0000417F4100002040E2
:10043000413F01007F08142241007F4040404000BE
:100440007F021C027F007F0408107F003E41414173
:100450003E007F09090906003E4151215E007F09E7
:100460001929460026494949320003017F0103004A
:100470003F4040403F001F2040201F003F40384089
:100480003F006314081463000304780403006159F7
:10049000494D4300007F4141410002040810200003
:1004A000004141417F0004020102040040404040FD
:1004B00040000003070800002054547840007F28C3
:1004C00044443800384444442800384444287F00D9
:1004D00038545454180000087E09020018A4A49C43
:1004E00078007F080404780000447D40000020402C
:1004F000403D00007F102844000000417F40000084
:100500007C04780478007C0804047800384444446F
:100510003800FC182424180018242418FC007C0837
:100520000404080048545454240004043F442400A4
:100530003C4040207C001C2040201C003C403040BF
:100540003C004428102844004C9090907C00446467
:10055000544C4400000836410000000077000000C1
:100560000041360800000201020402003C26232656
:100570003C0000F8FC0E060686FEFCF80000002099
:1005800030180CFEFE0000000000003C1C060606B1
:10059000060EFCF80000003C1E060606068EFCF85F
:1005A000000000000000C0701CFEFE00000000FE05
:1005B000FE0606060606060E0000000000C0F03823
:1005C0000C0606000000000E0606060606C6FE7EA5
:1005D000000000F8FC0E0606060EFCF8000000F80D
:1005E000FC0E0606060EFCF80000000000000000ED
:1005F000000000000000000000000000000000807B
:10060000C0C0C08000000000FEFEE08000000000CE
:1006100000FEFE00000000000000000000000000DE
:1006200000000000000000000000000000000000CA
:10063000000000FFFF00C0781F00FFFF0000000067
:10064000000000FFFF000000000000000000C0E00C
:10065000783C1F0700000000000C0C1E3F73E1C037
:10066000000000787E63606060FFFF600000003F74
:100670001F0C0606060EFCF8000000FCFF331818DD
:100680001838F0E0000000000000C0F03E0F070046
:10069000000000C3E7763C183C77E3C3000000018C
:1006A000030706060603FFFF00000000000000002D
:1006B00000FFFF838383838303030000FCFE6361E9
:1006C0006060606163FEFC00FFFF01030F1C70E0CF
:1006D000C0FFFF000000C0C0F8F8F8C0C000000074
:1006E0000000C0C0C0C0C0C0C000000000000000CA
:1006F0000000003F7FFCC7C0C0C07F3F000000700B
:100700006060607F7F606070000000787C6F676170
:10071000606060700000003870606060707C1F0F67
:100720000000000000000000407F7F400000003813
:100730007060606070381F0F0000001F3F706060C5
:1007400060703F1F000000707C1F0300000000006D
:100750000000001F3F70606060703F0F00000018D5
:100760003870606060703F1F0000007070700000A3
:10077000007F7F6161616161606000007F7F0000D8
:1007800000000000007F7F007F7F0000000000006D
:10079000037F7F00000001010F0F0F010100000027
:1007A0000000010101010101010000000000000042
:1007B000000000DA12818FD9F1DB40A4A62EAF0031
:1007C000A0C000A1C800AED580A83FD300408D14C2
:1007D000200000AE11241FBECFEFDAE0DEBFCDBF98
:1007E00004B603FE27C08091710890917208A09111
:1007F0007308B09174088730904BA740B04BD1F488
:100800001092710810927208109273081092740876
:1008100014BE84B7877F84BF0FB6F894A8958091E3
:100820006000886180936000109260000FBEE0E07D
:10083000F8E3099512E0A0E0B1E0EEE6FAE602C0C6
:1008400005900D92A03AB107D9F728E0A0EAB2E0EE
:1008500001C01D92A137B207E1F70E94E32A0C9470
:1008600035350C94000090910A0892FF0DC0282F96
:100870002871283019F4877F846006C0282F2471DE
:10088000243011F48B7F886093FF0DC0282F2871CE
:10089000283119F4877E846106C0282F2471243101
:1008A00011F48B7E886120910B0820FF0DC0382F3A
:1008B0003871383019F4877F816006C0382F317164
:1008C000313011F48E7F886021FF0DC0282F2871F0
:1008D000283119F4877E816106C0282F21712131CA
:1008E00011F48E7E886194FD877E08958330910592
:1008F00071F08430910571F08230910571F0813092
:10090000910571F0892B79F08BEE91E0089581EEDD
:1009100091E0089583EE91E0089585EE91E00895C9
:1009200087EE91E0089589EE91E008952F923F922D
:100930004F925F926F927F928F929F92AF92BF92EF
:10094000CF92DF92EF92FF920F931F93CF93DF939B
:10095000DC011B012A01F901102F8C918083119673
:100960008C911197818312968C91129782831396A2
:100970008C911397838314968C9114978483159686
:100980008C911597858316968C9116978F70868318
:1009900017822C9111963C91119712964C911297B7
:1009A00013965C91139714966C91149715967C91FD
:1009B000159716968C91169717969C91179704E3A6
:1009C0000E94D234390187E07822E201798268827C
:1009D0006114710449F4108211821282138214820C
:1009E00015821682178208C0DFEF6D16D7E07D06EC
:1009F00019F0868180618683208131814281538113
:100A00006481758186819781012F0E94B73420838C
:100A100031834283538364837583868397832C91C8
:100A200011963C91119712964C91129713965C91E6
:100A3000139714966C91149715967C9115971696AA
:100A40008C91169717969C910FE30E94D234F10176
:100A50002083DF91CF911F910F91FF90EF90DF9056
:100A6000CF90BF90AF909F908F907F906F905F904E
:100A70004F903F902F9008952F923F924F925F9208
:100A80006F927F928F929F92AF92BF92CF92DF929E
:100A9000EF92FF920F931F93CF93DF93CDB7DEB703
:100AA00069970FB6F894DEBF0FBECDBF29833A8396
:100AB0004B835C836D837E838F83988700E20E94E3
:100AC000D234422E532E642E752EA980BA80CB804C
:100AD000DC80D7FE07C00FEF401A500A600A700A88
:100AE00009F49AC0930144275527B9017F77672BF2
:100AF00031F5D301C201AA27BB270097A105B10593
:100B000059F429813A814B815C816D817E818F818D
:100B100098850E94A73463C112E0880F991FAA1F0D
:100B2000BB1F1A95D1F722273327A901281B390BA0
:100B30004A0B5B0B298B3A8B4B8B5C8B71C02F3F25
:100B40006FEF360761F488279927DC01841995092E
:100B5000A609B709898B9A8BAB8BBC8B61C0B90195
:100B600076956795CB01A0E0B0E0BC01CD01609522
:100B70007095809590950E94E1332F5F3F4F49011A
:100B8000A12CB12CB501A401A1E1440F551F661F92
:100B9000771FAA95D1F7D301C20180959095A095B2
:100BA000B0956C017D01C40ED51EE61EF71EC98AE4
:100BB000DA8AEB8AFC8AC301B201A50194010E9482
:100BC0007C34F901950184012E5F3F4F5801690182
:100BD000E12CF12C8701A986BA86CB86DC86ED86CE
:100BE000FE860F87188BE12CF12C00E010E09F01AE
:100BF0000E94233400E20E94D23449015A0109893B
:100C00001A892B893C89081919092A093B09098B7A
:100C10001A8B2B8B3C8B04C0198A1A8A1B8A1C8A5C
:100C200049895A896B897C899A01AB0160E070E03F
:100C3000CB0129873A874B875C876D877E878F87B3
:100C4000988B9301820152016901E12CF12C00E0A3
:100C500010E059856A857B858C85252F362F472F97
:100C6000582F61E070E080E090E00E94233463013F
:100C70005201D694C794B794A794760165015601A2
:100C80006701E12CF12C8701A986BA86CB86DC8628
:100C9000ED86FE860F87188BE12CF12C00E010E02A
:100CA0000E94EE3469017A0100E20E94D2342223CC
:100CB000D9F0D701C601840D951DA61DB71D8C1551
:100CC0009D05AE05BF0508F42F5F49895A896B89D8
:100CD0007C894F5F5F4F6F4F7F4F498B5A8B6B8B78
:100CE0007C8B6C017D01E3CF69897A898B899C8932
:100CF0004B015C019B01A50160E070E080E090E0A9
:100D00000FE10E94B73439014A01698F788F482E6C
:100D10009068592E29813A814B815C816D817E8159
:100D20008F81988501E00E94B73459016A017B01E7
:100D30008C019301A401698D788DC2010E94541D1C
:100D400059016A017B018C019301A401698D788DA1
:100D5000C2010E94EE340E94A734190149835987C9
:100D6000698B7D8B8E8B9F8B59016A017B018C0176
:100D70009301A401698D788DC2010E94541DD22E69
:100D8000E32EF42E052F162FC72EF82FE92F9101F1
:100D90004981598569897D898E899F89A0E00E9452
:100DA000153544F4612C712C812C912C198E188EE0
:100DB000412C512C2D2D3E2D4F2D502F612F7C2D50
:100DC0008F2F9E2FA1E00E94F73453016401E98C1C
:100DD000F88C82010E94EE3401E00E94D2346996C0
:100DE0000FB6F894DEBF0FBECDBFDF91CF911F913C
:100DF0000F91FF90EF90DF90CF90BF90AF909F90BA
:100E00008F907F906F905F904F903F902F900895BC
:100E10001F93CF93DF93CDB7DEB767970FB6F894E4
:100E2000DEBF0FBECDBF4B8B5C8B6D8B7E8B8F8BF4
:100E300086E09E01235F3F4FD901E82F1D92EA957E
:100E4000E9F795E0FE017396D90101900D929A950C
:100E5000E1F7F901DE01179601900D928A95E1F70D
:100E6000CE0107960E941629811136C086E0FE0148
:100E70003796DE01119601900D928A95E1F77F81F8
:100E80006885EA85FB85309739F16F3F11F47F3F24
:100E900019F12091B80730E0C901019687709927B0
:100EA0004091E90750E08417950779F179836A83C7
:100EB000FD83EC8396E0929FD001939FB00D1124A7
:100EC000A754B84FFE01319601900D929A95E1F723
:100ED0008093B8070E94B12816E08091E9079091AD
:100EE000B807891701F1189FC00111248754984F42
:100EF0000E9416298823B9F08091E90790E00196B5
:100F0000877099278093E907E8CF0E9409311092F2
:100F1000B8071092E907E2EBF7E086E0DF011D92E7
:100F20008A95E9F7D9CF67960FB6F894DEBF0FBE62
:100F3000CDBFDF91CF911F91089520914C03309147
:100F40004D038217930771F090934D0380934C03E8
:100F5000E0910C08F0910D08309721F00084F185A4
:100F6000E02D0994089520914A0330914B03821794
:100F7000930771F090934B0380934A03E0910C0820
:100F8000F0910D08309721F00680F781E02D09944B
:100F90000895E0910C08F0910D08309721F0019030
:100FA000F081E02D099480E008950E943926DC014B
:100FB000CB01805A9541AF4FBF4F80936208909309
:100FC0006308A0936408B093650880916608811156
:100FD0000BC062E070E088EF90E00E943222892B23
:100FE00019F481E080936608809166080895E8E826
:100FF000F3E080E094E0DF019C011D92215030403D
:10100000E1F7F0938F07E0938E078FEF9FEF9093B8
:101010008703809386030895CF92DF92EF92FF9229
:10102000843030F4811105C0909180009F7704C016
:1010300083E090918000906890938000282F30E0AA
:10104000AFEFBFEF0E94093423E030E040E050E012
:101050000E94E1332C3784E138074105510530F413
:10106000C90169E070E00E94CD3329C0DA01C901ED
:101070008A50974DAF4FBF4F6627782F892F9A2FF1
:1010800025EF38E241E050E00E94E13369017A0146
:10109000CA01B9010E94B1339B01AC01C701B6017D
:1010A0000E94B133BB27A92F982F872F009721E0EB
:1010B000A207B10511F0BC0102C06FEF7FEF709382
:1010C000890060938800FF90EF90DF90CF900895A3
:1010D00080E090E00E9477338C3E9E4F11F00E949A
:1010E000EA2686E090E00E946F3380935603282F13
:1010F00026952695269530E02430310524F087701A
:101100008861809356038091560380FF04C08695C2
:101110008695869501C080E00C940C08CF93DF93F0
:10112000E72FF0E026E0829FE00DF11D1124EE0F85
:10113000FF1FEE0FFF1FE60FF11DEE0FFF1FE65022
:10114000FF4FC591D491CE01C238D10569F1B0F4F9
:10115000C133D10509F475C048F4C932D10509F489
:1011600069C0CA32D10509F473C085C0C533D10541
:1011700009F459C0C933D105B9F07DC0C33ED105CA
:1011800071F138F4C03ED105B1F0C23ED10511F184
:1011900072C0C63ED105B9F1C73ED105C9F1C43E02
:1011A000D10509F068C024C020910A0820FD5DC067
:1011B00021FD5BC060C020910A0820FD50C0209135
:1011C0000B0820FF92C180910A0884FD8CC183EE38
:1011D00090E08BC120910A0822FF87C1F4CF809153
:1011E0000A0882FD3FC080910B0880FD3EC0EBCF16
:1011F00020910B0821FF79C180910A0884FD73C1F9
:1012000087EE90E072C120910A0823FF6EC1F4CFEF
:1012100080910A0883FD2CC080910B0881FFECCFE0
:1012200084EE90E062C120910A0825FF5EC189E248
:1012300090E05BC120910A0825FF57C185E390E04B
:1012400054C120910A0826FF50C18AE290E04DC1A6
:1012500020910A0826FF49C181E390E046C189E355
:1012600090E043C182EE90E040C180EE90E03DC14D
:1012700086EE90E03AC1C11532E5D30708F08BC085
:10128000C11541E5D40730F0FC2FEE27CF01816F67
:10129000906A2BC1C83ED105A8F5C03ED10508F023
:1012A00024C1C83AD105B0F4C53AD10548F0EC2FB5
:1012B000E55AF0E0ED5EFD4F808190E0906415C14D
:1012C000C130D10509F411C108F40DC1249708F407
:1012D0000AC10BC1CF3BD10558F4EC2FE85AF0E01E
:1012E000EE0FFF1FEA5EFD4F808191819464FDC087
:1012F000C03CD10508F4F7C0FE01EE0FFF1FE8580F
:10130000F04018C0C11520E4D207F8F4C11530E34D
:10131000D30798F4C11541E0D40708F4E4C0C1151F
:1013200020E2D20708F4E1C0FE01FF70EE0FFF1FBC
:10133000E850FF4F85919491D8C0CE019927D3FFF3
:1013400002C0986CD2C0906CD0C0C11530E5D307F4
:1013500028F4FE01FF70CF01906AC7C08C2F837004
:1013600021E030E002C0220F331F8A95E2F73C688B
:10137000CE0174E0969587957A95E1F78370382BC6
:10138000EC2FEF70E695E69540E2E49FC001112452
:10139000822B932BAAC0C11549E5D40708F04DC094
:1013A000C11588E5D80730F0FC2FEE27CF01806FFC
:1013B000906A9BC0C11594E5D90738F52C2F269566
:1013C0002695AE0143705527C115D34578F480E2C8
:1013D000289F9001112481E090E002C0880F991F9E
:1013E0004A95E2F7822B932B9C687FC090E2299F5D
:1013F0009001112481E090E002C0880F991F4A9566
:10140000E2F7822B932B9A6870C0C11545E5D4078B
:1014100030F4FC2FEE27CF01846F906A66C0C115AF
:1014200086E5D80708F05FC08C2F0E9433048F71C7
:1014300090E0982F8827906258C0CD3B9CE5D90753
:1014400019F480E091ED51C0CE3B2CE5D207A0F518
:10145000CB3B3CE5D30709F443C018F080E095EDA1
:1014600044C0C1158AE5D807F0F58C2F8F700E9413
:101470003304FE0194E0F695E7959A95E1F7EF7055
:10148000F0E0FE2FEE27F0699F01282B13C0C13C2E
:101490002CE5D207C0F0CE0190568115904218F588
:1014A0008D2F8F710E943304FE01FF27F0628F7130
:1014B0009F01382BC90119C0C03C9CE5D90739F7F9
:1014C00080E093ED12C0CE3B3CE5D30719F480E0F9
:1014D00090ED0BC0CF3BDC4531F480E092ED05C0D0
:1014E00080E094ED02C080E090E0DF91CF9108951C
:1014F00080FF02C02E9A08952E9808957F928F92B1
:101500009F92AF92BF92CF92DF92EF92FF920F9392
:101510001F93CF93DF935C01962EEA01B02FE22F49
:10152000832E9601A701602F712F8E2F982DA0E09A
:101530000E94153509F4B7C0FC2D20E030E040E0F2
:1015400050E060E0712F707E8E2F982DA0E00E94F9
:10155000153599F42F2F3D2DA7016B2F712F8E2F4D
:10156000982D08E00E94B734F22FD32E7A01B62FBF
:10157000172FE82F892E2897E0CF20E030E040E0B9
:1015800050E060E070E08E2F807F982DA0E00E94F8
:10159000153599F42F2F3D2DA7016B2F712F8E2F0D
:1015A000982D01E00E94B734F22FD32E7A01B62F86
:1015B000172FE82F892E2197E0CF712C20E030E003
:1015C00040E050E060E070E080E0982DA0E00E94F4
:1015D0001535F9F02F2F3D2DA7016B2F712F8E2F71
:1015E000982D03E00E94D2342170722E2F2F3D2DB2
:1015F000A7016B2F712F8E2F982D04E00E94D234FB
:10160000F22FD32E7A01B62F172FE82F892E24968A
:10161000D5CF20E030E040E050E060E070E08E2F79
:10162000807E982DA0E00E941535B1F08F2F81703B
:10163000782E2F2F3D2DA7016B2F712F8E2F982DD8
:1016400001E00E94D234F22FD32E7A01B62F172F49
:10165000E82F892E2196DDCFCF2E772001F196013C
:10166000A7016B2F712F8E2FA1E00E94F734690123
:101670007A01B62F172FE82F20E030E040E050E04D
:1016800060E070E0807EA0E00E94153541F0219678
:10169000C12CD12CE12CF12CB0E010E0E0E11C16C3
:1016A0001D062CF010C0CF3FD740A4F016C0CF3F8E
:1016B000F7E0DF07A4F0C12CD12CE12CF12CB0E035
:1016C00010E0E0E00AC0C12CD12CE12CF12CB0E0FC
:1016D00010E0E0E0C0E0D0E002C0CFEFD7E0EF7074
:1016E000292D30E040E050E060E070E080E090E0E4
:1016F0000FE30E94B734992EFC2DF22BD32AE42A53
:10170000F52AB62B172BE82B9D2F990F990B9E01CD
:10171000492F592F692F792F892F04E30E94B7345D
:10172000F22BE501F883D32AD9824E294A835F2917
:101730005B836B2B6C83172B1D838E2B8E839929D8
:101740009F83DF91CF911F910F91FF90EF90DF90DA
:10175000CF90BF90AF909F908F907F9008956F92A1
:101760007F928F929F92AF92BF92CF92DF92EF9231
:10177000FF920F931F93CF93DF93CDB7DEB7A5975B
:101780000FB6F894DEBF0FBECDBF3C010E8B1F8B92
:10179000288F398F4A8F5B8F6C8F7D8F8E8E9F8EB7
:1017A000A8A2B9A2CAA2DBA2ECA2FDA28FA898AC03
:1017B0000AE09E01275F3F4FAE014D5E5F4FBE01C5
:1017C0006B5E7F4FCE0146960E9496049E012F5F6E
:1017D0003F4FAE014F5E5F4FBE016B5E7F4FCE014C
:1017E0004E960E949604F4011082EB89FC89EF3F2B
:1017F00087E0F80731F0A989BA89AF3F87E0B807D9
:1018000059F48FEFF3018083818382838383848300
:10181000858386838FE733C0309729F0CF01CF9639
:101820008A179B07ACF48E8DF30180838F8D8183A3
:1018300088A1828389A183838AA184838BA18583E4
:101840008CA186838DA1878381E0F4018083CCC045
:10185000109729F0CD01CF968E179F0794F48E89AB
:10186000F30180838F898183888D8283898D83832F
:101870008A8D84838B8D85838C8D86838D8D8783E4
:10188000B3C08EA98823D9F1EA17FB07C4F08F01F2
:101890000A1B1B0B29813A814B815C816D817E8102
:1018A0008F8198850E94D234A984BA84CB84DC8449
:1018B000ED84FE840F8518890E94EE3454C08D019A
:1018C0000E1B1F0B29853A854B855C856D857E85B2
:1018D0008F8598890E94D234A980BA80CB80DC8021
:1018E000ED80FE800F8118850E94EE3429873A87AB
:1018F0004B875C876D877E878F87988B63C0AE1719
:10190000BF07B4F0EA17FB07B9F529853A854B857F
:101910005C856D857E85A980BA80CB80DC80ED807A
:10192000FE800F8118858F8598890E940C3520F1E3
:101930008F010A1B1B0B29813A814B815C816D81D0
:101940007E818F8198850E94D23459016A017B0182
:101950008C0129853A854B855C856D857E858F85D3
:1019600098890E94033529873A874B875C876D8762
:101970007E878F87988B28C08D010E1B1F0B2985B2
:101980003A854B855C856D857E858F8598890E941B
:10199000D23459016A017B018C0129813A814B8142
:1019A0005C816D817E818F8198850E9403352987B6
:1019B0003A874B875C876D877E878F87988B81E01E
:1019C000F4018083BC8BAB8BC984DA84EB84FC8408
:1019D0000D851E852F8538894B895C894A505109B0
:1019E00060E0C3010E947E0AA5960FB6F894DEBFA0
:1019F0000FBECDBFDF91CF911F910F91FF90EF9060
:101A0000DF90CF90BF90AF909F908F907F906F901E
:101A100008953F924F925F926F927F928F929F9222
:101A2000AF92BF92CF92DF92EF92FF920F931F93EC
:101A3000CF93DF93CDB7DEB729970FB6F894DEBF0B
:101A40000FBECDBF722EB32FA42FF52FE62F672E1A
:101A5000582E492E45015601CE2CE02E0FE30E9450
:101A6000D2342170322E9401A5016C2D7F2D8E2D44
:101A7000912F0E94D2342170CE0109963216B1F016
:101A80009F938F931F92DF2CF12E072D1B2F2A2F50
:101A90003F2F4E2F562D652D742D08970E94AF0BAA
:101AA0002985832D82278170382E12C09F938F93B2
:101AB00081E08F93DF2CF12E072D1B2F2A2F3F2F34
:101AC0004E2F562D652D742DCE0101960E94AF0B21
:101AD0000F900F900F9079816A815B814C813D81DD
:101AE0002E819F818885332011F0806808C079831A
:101AF0006A835B834C833D832E839F838F778887A4
:101B000029813A814B815C816D817E818F819885AD
:101B100029960FB6F894DEBF0FBECDBFDF91CF91EF
:101B20001F910F91FF90EF90DF90CF90BF90AF90FB
:101B30009F908F907F906F905F904F903F9008950F
:101B40002F923F924F925F926F927F928F929F92CD
:101B5000AF92BF92CF92DF92EF92FF920F931F93BB
:101B6000CF93DF93CDB7DEB7E5970FB6F894DEBF1E
:101B70000FBECDBF180129013A016CAB7DABABAAFA
:101B8000BB2DAC2DFD2DEE2D1F2D8130910591F03B
:101B900082309105E9F494014BA95B2D6C2D7D2DCC
:101BA0008E2D9F2D0FE30E94D23420FD02C01068BD
:101BB00001C01F775401CBA8DB2EEA2EFF2E0E2F7B
:101BC0009101A201B3018CA99DA90E94090D0AC12E
:101BD0008330910509F085C029A63AA62BA75CA6FB
:101BE0004DA77EA62CA92FA78DA988AB89A29AA262
:101BF0002BA92BA3BCA2CDA2DEA2EFA2F8A60BE0DC
:101C00009E01275F3F4FAE01475E5F4FBE016E5C96
:101C10007F4FCE0189960E9496049E012F5F3F4F11
:101C2000AE014F5E5F4FBE016F5C7F4FCE0181966C
:101C30000E949604898C9A8C8FEF881687E098060C
:101C400009F4C8C089899A898F3FE7E09E0709F4A3
:101C5000C1C081149104E1F10097D1F1880D991D63
:101C60004C0129E0821A24E0920A9A8E898EA9807A
:101C7000BA80CB80DC80ED80FE800F8118852985BD
:101C80003A854B855C856D857E858F8598890E9418
:101C9000541D062F29873A874B875C876D877E877F
:101CA0008F87988B69A9EAA96E276AAB69017A01C7
:101CB000172F9C01A401CE0189960E947E0A29A5B6
:101CC0003AA54BA55CA56DA57EA58FA598A98AC050
:101CD00020E030E040E050E060E070E080E090E044
:101CE00081C0049709F0A8C0298E3A8E2B8F5C8E94
:101CF0004D8F7E8E8CA98F8F2DA928A3898A9A8AD1
:101D00008BA98B8BBC8ACD8ADE8AEF8AF88E0BE09A
:101D10009E01275F3F4FAE01475D5F4FBE016E5C86
:101D20007F4FCE0149960E9496049E012F5F3F4F40
:101D3000AE014F5D5F4FBE016F5C7F4FCE0141969C
:101D40000E94960489A49AA4EFEF8E16E7E09E06FF
:101D500009F440C069A07AA02FEF621627E072064E
:101D6000C9F161147104B1F129813A814B815C811F
:101D70006D817E818F8198850E943C0559016A01A1
:101D80007B0129853A854B855C856D857E858C0137
:101D90008F8598890E94541D062FF401E619F709D2
:101DA000E150FC4FFAA7E9A73A9769A9AAA96A27BF
:101DB00069017A01172F9C01AF01CE0149960E945B
:101DC0007E0A298D3A8D4B8D5C8D6D8D7E8D8F8D2C
:101DD00098A108C02FEF3FEF4FEF5FEF6FEF7FEF5E
:101DE0008FEF9FE7209336033093370340933803F8
:101DF0005093390360933A0370933B0380933C0301
:101E000090933D0320933E0330933F034093400360
:101E100050934103609342037093430380934403C0
:101E2000909345030E94FB1DFC019CE0A4ECB1E0F3
:101E300001900D929A95E1F7109251031092500380
:101E400020913E0330913F03409140035091410364
:101E50006091420370914303809144039091450344
:101E60002F3F3F4F4F4F5F4F6F4F7F4F8F4F9F47DA
:101E700031F48FEF9FEF9093510380935003E596D9
:101E80000FB6F894DEBF0FBECDBFDF91CF911F918B
:101E90000F91FF90EF90DF90CF90BF90AF909F9009
:101EA0008F907F906F905F904F903F902F9008950C
:101EB0000E94F707109251031092500310924703AB
:101EC0001092460386E1E1EFF1E0A4E0B1E0019079
:101ED0000D928A95E1F78CE0E7E0F2E0A4ECB1E046
:101EE00001900D928A95E1F71092530310925203DC
:101EF00085E090E0909303018093020181E090E0FF
:101F000090930101809300011092350310923403E5
:101F100010924F0310924E030895CF932091020127
:101F200030910301232B21F41092470310924603B2
:101F300020915003309151038033F1F42A30310560
:101F40000CF069C0121613066CF08CE0E7E0F2E0CA
:101F5000A4ECB1E001900D928A95E1F71092510343
:101F6000109250038091500390915103FC01EC5367
:101F7000FE4F20E320834AC02A303105D0F510926D
:101F80004F0310924E032130310539F49091C40172
:101F9000903319F48093C4013EC0409146035091A0
:101FA0004703452B79F496E1E1EFF1E0A4E0B1E0DD
:101FB00001900D929A95E1F745E050E050930301AE
:101FC000409302012115310549F49CE0E7E0F2E07D
:101FD000A4ECB1E001900D929A95E1F7F901EC5370
:101FE000FE4F80832F5F3F4F309351032093500368
:101FF00012C037FF10C0C82F0E94580F80915003A5
:1020000090915103FC01EC53FE4FC08301969093D5
:10201000510380935003CF910895FC01019000205B
:10202000E9F731979F01281B390BFC0140E050E094
:102030004217530734F48191803229F04F5F5F4F8C
:10204000F7CFC9010895CA010895CF93DF93EC013A
:102050000E940D10E0914603F09147039C012E0F62
:102060003F1FA901415051094531510520F4EC5F52
:10207000FE4FDE0123C025513109A4E0B1E0E5E1C6
:10208000F0E0BF01621B730BAD0144505140461795
:1020900057073CF4AD01420F531FFA0140814D93A5
:1020A000F3CFFB01EC5FFE4FDE019D012C1B3D0BCE
:1020B0002817390784F42D912193F7CFAD014C1BDC
:1020C0005D0B481759071CF44D914193F7CF30939E
:1020D000470320934603DF91CF9108958F929F92FB
:1020E000AF92BF92CF92DF92EF92FF920F931F9326
:1020F0008091520390915303892B11F00E94232267
:102100000E94EF1F49015A016B017C0120933E039D
:1021100090923F0340934003B09241036093420387
:10212000D092430380934403F0924503209320030D
:102130009092210340932203B092230360932403DF
:10214000D092250380932603F09227038CE0E4ECE1
:10215000F1E0A8E2B3E001900D928A95E1F781E009
:1021600090E0909335038093340384EC91E00E94D7
:10217000251080E090E00E9476040E9425101092C5
:10218000510310925003109247031092460310928D
:10219000530310925203009136031091370320919C
:1021A00038033091390340913A0350913B036091D9
:1021B0003C0370913D0380910201909103010E94C4
:1021C000A00D1F910F91FF90EF90DF90CF90BF90E7
:1021D000AF909F908F9008956F927F928F929F9271
:1021E000AF92BF92CF92DF92EF92FF920F931F9325
:1021F000CF93DF93209150033091510337FD1EC1DF
:10220000EC01609002017090030185E06816710492
:1022100009F04EC0D0930301C09302018091520394
:1022200090915303892B11F00E9423220E94EF1FEB
:1022300020933E0330933F03409340035093410368
:102240006093420370934303809344039093450348
:102250002093360330933703409338035093390368
:1022600060933A0370933B0380933C0390933D0348
:1022700064EC71E084E091E00E942E3584EC91E002
:102280000E940D109093470380934603CE010E9455
:1022900076040E9425101092350310923403109298
:1022A0005103109250031092530310925203C0C076
:1022B00080914E0390914F03892B09F484C0809143
:1022C000340390913503209709F04FC0892B09F40E
:1022D00046C086E1E1EFF1E0A4E0B1E001900D92AB
:1022E0008A95E1F7109247031092460384EC91E03F
:1022F0000E942510C3010E9476040E94251088E2E6
:1023000093E00E94251089EE91E00E9425108090B4
:10231000200390902103A0902203B0902303C0904B
:102320002403D0902503E0902603F090270300912A
:102330003E0310913F0320914003309141034091AF
:102340004203509143036091440370914503C301DC
:102350000E94A00D109247031092460369C067289F
:1023600009F46CC00E946E1063C0892BD9F01092E2
:10237000350310923403D0930301C093020186E128
:10238000E1EFF1E0A4E0B1E001900D928A95E1F770
:1023900084EC91E00E942510CE010E9476040E94F8
:1023A000251046C0D0930301C0930201CE010E94C4
:1023B0007604FC018081E0914603F0914703ED5FD4
:1023C000FE4F808335C0209769F28091520390912F
:1023D0005303892B11F00E9423220E94EF1F2093A8
:1023E0003E0330933F034093400350934103609377
:1023F00042037093430380934403909345031092E8
:1024000035031092340384EC91E00E942510CE0134
:102410000E9476040E9425101092510310925003DE
:102420001092530310925203D0930301C093020100
:1024300081E090E090934F0380934E03DF91CF9122
:102440001F910F91FF90EF90DF90CF90BF90AF90D2
:102450009F908F907F906F900895CF92DF92EF9230
:10246000FF920F931F93CF93DF93FC01B0E0D081D5
:1024700011810281F380E480D580C680C78120E08D
:1024800030E040E050E060E070E080E09C2FA0E0B1
:102490000E94153569F5B03459F12D2F312F402F99
:1024A0005F2D6E2D7D2D8C2D9C2F08E00E94B73462
:1024B0002083318342835383648375838683978328
:1024C000B85FD5CFB03449F12D2F312F402F5F2D7C
:1024D0006E2D7D2D8C2D9C2F01E00E94B734208322
:1024E0003183428353836483758386839783BF5F7D
:1024F000D08111810281F380E480D580C680C781BC
:1025000020E030E040E050E060E070E080E09C2FB0
:102510009078A0E00E941535A9F28B2FDF91CF9122
:102520001F910F91FF90EF90DF90CF9008952F9221
:102530003F924F925F926F927F928F929F92AF9253
:10254000BF92CF92DF92EF92FF920F931F93CF93A0
:10255000DF93CDB7DEB72F970FB6F894DEBF0FBE6F
:10256000CDBF722E432E542E652E69877A871C01AB
:10257000480119821A821B821C821D821E821F82C0
:1025800080EA8887F80110821182128213821482F5
:102590001582168280E88783C101A0E00E9415356C
:1025A00064F40E94A734722E432E542E652E698740
:1025B0007A871C01F1E0FF8701C01F8623E030E02D
:1025C0003E872D871C861B86272D342D452D562DA5
:1025D00069857A85C101A0E00E94153509F473C0B0
:1025E000272D217030E040E050E060E070E080E0B6
:1025F00090E0A0E00E94153569F1A980BA80CB80F7
:10260000DC80ED80FE800F811885F401208131810E
:102610004281538164817581868197810E94541D16
:10262000F4012083318342835383648375838683DB
:102630009783C4010E942D122D853E852F5F3F4F49
:10264000281B310987FD33958B859C85820F931F4D
:102650009C878B8729813A814B815C816D817E814A
:102660008F81988559016A017B018C010E94541D5C
:1026700029833A834B835C836D837E838F83988722
:102680000D851E85000F111F0F5F1F4FCE01019694
:102690000E942D12F801E81BF10987FDF395FE87D2
:1026A000ED87272D342D452D562D69857A85C1015D
:1026B00001E00E94D034722E432E542E652E69877D
:1026C0007A871C0181CFFF85FF2319F1F401208156
:1026D00031814281538164817581868197810E9415
:1026E0003C05F401208331834283538364837583E3
:1026F000868397830B851C85119501951109C4016B
:102700000E942D129801281B310987FD33953C87C3
:102710002B878B859C852F960FB6F894DEBF0FBE56
:10272000CDBFDF91CF911F910F91FF90EF90DF9080
:10273000CF90BF90AF909F908F907F906F905F9061
:102740004F903F902F9008952F923F924F925F921B
:102750006F927F928F929F92AF92BF92CF92DF92B1
:10276000EF92FF920F931F93CF93DF93CDB7DEB716
:10277000A3970FB6F894DEBF0FBECDBF2C8B3D8B59
:102780004E8B5F8B688F798F8A8F9B8F702EEAA21A
:10279000DF8ECE8E21E1201728F0011105C07724AD
:1027A000739402C091E1792E0BE09E01275F3F4FA9
:1027B000AE014F5E5F4FBE016D5E7F4FCE0144960E
:1027C0000E94960429893A892115310531F480E364
:1027D0008093A0021092A102EDC12F3F47E0340781
:1027E00039F46DEE71E080EA92E00E942E35E2C18C
:1027F0002F5F33403A8B298B8B89882331F08DE210
:102800008093A0026624639401C0612C37FD0FC041
:102810008AE0829F4001839F900C11245FE1850E26
:10282000911C85E0969487948A95E1F70EC047EF56
:1028300042034001439F900C112405E09694879435
:102840000A95E1F7919481949108442755274819F6
:102850005909952F990F990B8E010F5F1F4F9A0100
:10286000492F592F692F792F892F0E949712298973
:102870003A89820F931F9A8B898BA980BA80CB806B
:10288000DC80ED80FE800F81188529853A854B8597
:102890005C856D857E858F8598890E94541D29876A
:1028A0003A874B875C876D877E878F87988BCE01B1
:1028B00009960E942D1221E030E0281B310987FD86
:1028C000339589899A89280F391F3A8B298B14E00F
:1028D000412E512C89899A8997FF76C029853A859E
:1028E0004B855C856D857E85A12CB12CC12CD12CAE
:1028F000E12CF12C00E010EA8F8598890E94541D8C
:1029000029873A874B875C876D877E878F87988B6F
:10291000CE0109960E942D12D201A81BB10987FD94
:10292000B395CD0129893A89820F931F9A8B898BA0
:10293000B1E08B1A9108CECF039709F04CC098896B
:1029400020E030E040E050E060E070E080E0907F28
:102950002F3F3F4F4F4F5F4F6F4F7F4F8F4F9F49DD
:10296000D1F1C8F129853A854B855C856D857E85D9
:102970008CECA82E9CECB92EECECCE2EFCECDF2ED1
:10298000ACECEA2EBCECFB2E0CEC1CEC8F85988991
:102990000E94541D29873A874B875C876D877E8705
:1029A0008F87988BCE0109960E942D12082E000C5D
:1029B000990B039629893A89F901E81BF90BFA8BDF
:1029C000E98BFFEF8F1A9F0A89899A8984309105D4
:1029D0000CF4B2CFC7CF140121E0260D2D8F522E5B
:1029E0007C8E6BC0852D90E0DC01A056BD4FB9A355
:1029F000A8A320E32C93F7FD34C0B984CA84DB84F8
:102A0000EC84FD844E84AF84A889ABA30FE310E06F
:102A10000E1B1F0B2B2D3C2D4D2D5E2D6F2D742D60
:102A20008A2D9A2F0E94D234205DA8A1B9A12C939F
:102A30008F010F5F1F4F2B2D3C2D4D2D5E2D6F2DC8
:102A4000742D8A2D9BA10E94B73429873A874B8722
:102A50005C876D877E878F87988BEFEFFFEFFA8B10
:102A6000E98B539429853A854B855C856D857E85F8
:102A7000A12CB12CC12CD12CE12CF12C00E010EABE
:102A80008F8598890E94541D29873A874B875C87D8
:102A90006D877E878F87988BCE0109960E942D12B5
:102AA00024E030E0281B310987FD3395C9012989CD
:102AB0003A89820F931F9A8B898B3C8D31503C8FC2
:102AC000E989FA893F3F09F08DCF4D8D740EF7FDEE
:102AD0003BC00FE310E00E1B1F0B29853A854B8589
:102AE0005C856D857E858F8598890E94D234A4E0AF
:102AF0000E94153549F140F1872D30E39FEF980F83
:102B0000691660F4E92FF0E0E056FD4F208129338B
:102B100019F43083892FF2CF2F5F2083961114C0D0
:102B200014015FEF251A350AE82FF0E0E056FD4F5B
:102B300091E3908390E38F5F871530F4E82FF0E006
:102B4000E056FD4F9083F7CF862D90E0FC01319643
:102B5000E056FD4F2081DC01A056BD4F2C938EE244
:102B600080838AA1882331F0E72DF0E0E056FD4F05
:102B70001082739461E0670DE72DF0E0E056FD4FA1
:102B800085E480831214130444F4E62FF0E0E05649
:102B9000FD4F8BE2808362E0670D70E060567D4FF1
:102BA0004AE0C1010E943233AE8DBF8D109711F003
:102BB0002D923C9280EA92E0A3960FB6F894DEBF85
:102BC0000FBECDBFDF91CF911F910F91FF90EF907E
:102BD000DF90CF90BF90AF909F908F907F906F903D
:102BE0005F904F903F902F9008950F931F93CF9336
:102BF000DF93C62FD42F022FFC0182818823C9F0D6
:102C0000609354030E9445269093490380934803A0
:102C100080E28C0F883008F050C0C77081E001C09E
:102C2000880FCA95EAF7DF91CF911F910F910C940D
:102C3000293110915403161330C0809148039091AC
:102C400049030E940F26883C910538F5C0E2CD0F5C
:102C50001D17B9F080E2810F883040F4177081E0D1
:102C600001C0880F1A95EAF70E941E31C83048F457
:102C700081E09D2F977001C0880F9A95EAF70E9416
:102C80002931802F0E941332C830B8F4D77081E008
:102C900001C0880FDA95EAF70AC080E28C0F88300D
:102CA00060F4C77081E001C0880FCA95EAF7DF9130
:102CB000CF911F910F910C941E31DF91CF911F91F5
:102CC0000F9108954F925F926F927F929F92AF9271
:102CD000BF92CF92DF92EF92FF920F931F93CF9309
:102CE000DF93CDB7DEB729970FB6F894DEBF0FBEDE
:102CF000CDBFFC01D080118183819481892B09F49F
:102D0000BDC61F3F21F40FEFD01609F4B7C67F01EF
:102D100085E0DE01119601900D928A95E1F7F701A9
:102D2000228189819A81222349F00E949927082FC4
:102D3000682F89819A810E94102803C00E94E5278C
:102D4000082FE12FF0E016E0019FE00DF11D1124A6
:102D5000EE0FFF1FEE0FFF1FED0DF11DEE0FFF1F1A
:102D6000E650FF4F059114910C35110509F493C0FD
:102D7000F8F40735110509F4B4C058F40535110508
:102D800009F4B7C008F0BDC00435110509F4C1C08D
:102D900064C00935110509F46AC008F49AC00A35FF
:102DA000110509F46AC00B35110509F46CC055C052
:102DB0000036110509F481C048F4F70182810E350F
:102DC000110509F472C008F46CC073C00236110515
:102DD00009F447C008F477C00336110551F0023BEF
:102DE0001105D9F5F70182818823B9F10E94580FA6
:102DF00034C0F7018281882381F180915203909140
:102E00005303892B51F580915003909151039C01FC
:102E1000215031092A30310538F4FC01EC53FE4FC2
:102E20002EE2208301960BC08B309105B4F4FC0197
:102E3000EC53FE4F20E320832EE2218302969093F1
:102E400051038093500310924F0310924E0381E080
:102E500090E09093530380935203E5E4F1E080E225
:102E600062C0F70182818823C1F380E311C0F701BA
:102E70008281882391F381E30BC0F701828188234B
:102E800061F382E305C0F7018281882331F383E394
:102E90000E948D0FE2CFF70182818823F1F284E353
:102EA000F7CF8823D1F285E3F3CF8823B1F286E30D
:102EB000EFCF882391F287E3EBCFF701828188235C
:102EC00061F288E3E5CFF7018281882331F289E35B
:102ED000DFCFF7018281882309F4BFCF80E090E043
:102EE0001FC0F7018281882309F4B7CF81E090E009
:102EF00017C0F7018281882309F4AFCF83E090E007
:102F00000FC0F7018281882309F4A7CF82E090E007
:102F100007C0F7018281882309F49FCF84E090E005
:102F20000E94EC109ACF819321E0EA35F207D9F79D
:102F300084E091E00E940D10EAE5F1E0019797FD31
:102F400006C0DC01AC5FBE4F2C912293F7CFE4E8C2
:102F5000F1E080E2819331E0E33CF307D9F784ECC0
:102F600091E00E940D103C01E1E06E1A71082DE71E
:102F700030E03F832E839C012C533E4F5901C12CDE
:102F8000D12C24E9522E34EB432E44ED942E77FCC1
:102F900041C0F50182915F018E32A9F48E819F813B
:102FA000FC01EC19FD09E55EFE4F5082FC01EC19B5
:102FB000FD09E05DFE4F40828C199D09FC01EB5B31
:102FC000FE4F908220C08B3211F08D3219F420E731
:102FD00030E013C0853419F420E530E00EC08136AE
:102FE00019F426E330E009C08E3419F42BE430E004
:102FF00004C0282F30E0205E3F4FA601BE016A5F6B
:103000007F4F0E943B21F1E06F1A71082FEFC21A27
:10301000D20ABDCF0E94F707EBE1F1E0019000205A
:10302000E9F7CF0101976C019BE1A92E91E0B92E40
:10303000AC14BD0430F4F50181915F010E94772149
:10304000F7CF033FFCE51F0729F180F4083D3CE57D
:103050001307C9F0093D8CE5180741F1073D9CE5D0
:10306000190739F526E241EE61EE10C0053FECE5A7
:103070001E07C1F098F0063F2CE51207D1F427E2B5
:1030800045EE66EE03C027E245EE65EEC7010E94FD
:10309000F515F4C426E241EE60EEF8CF27E245EEE6
:1030A00064EEF4CF26E241EE62EEF0CF28E241E09A
:1030B000ECCFF7018281882309F43FC110925403B9
:1030C0000230FCE51F0708F422C106312CE5120787
:1030D00038F098012A5F3C452930310508F017C1C6
:1030E0000E94D92690930B0880930A0800313CE592
:1030F000130709F4C3C008F041C008309CE5190764
:1031000009F49AC0F0F40430FCE51F0709F487C005
:1031100068F402303CE5130709F477C003301C451E
:1031200009F0E5C080910A08826076C006309CE50F
:10313000190709F46EC008F07BC080910A08886006
:103140006BC00C30FCE51F0709F485C068F40A3039
:103150003CE5130709F474C008F079C00E940931F6
:1031600080910A08806858C00E309CE5190709F460
:1031700076C008F07FC080910A088BC00B3FFCE549
:103180001F0709F44FC018F503313CE5130709F494
:103190007DC078F401319CE5190709F473C0023150
:1031A0001C4509F0A4C00E94093180910A088F775C
:1031B00033C00531FCE51F0709F472C008F486C06E
:1031C0000A3F1C4509F093C080910B083EC00F3F99
:1031D0008CE5180709F45FC058F40D3FECE51E07B5
:1031E00009F444C008F43FC080910B0882602DC0F0
:1031F00001302DE5120709F475C008F45DC00230F6
:103200001D4509F074C060E06EC080910A088160BD
:1032100003C080910A08806180930A0868C0809189
:103220000A0811C080910B08826080930B085FC070
:1032300080910A088062F0CF80910A088064ECCF08
:1032400080910A0888608460E7CF8160EECF80912A
:103250000A088E7FE1CF80910A088D7FDDCF8091B3
:103260000A08877FD9CF80910B0818C080910B087E
:103270008D7FDBCF80910A088F7ECECF80910A08A8
:103280008F7DCACF80910A088F7BC6CF80910A08B4
:10329000877F8B7FC1CF80910B088D7F8E7FC5CFBD
:1032A00080910A0882FB222720F991E0922790FB67
:1032B00082F990FB83F9B0CF80910B08982F9095FD
:1032C00091708E7F892B90FB81F9AFCF0E940931DD
:1032D00080910A0887FB222720F991E0922790FB32
:1032E00087F99ACF61E08EE090E00E947D33609193
:1032F0000A0810910B0884E090E00E947D33612F52
:1033000081E290E00E947D330E940931B7C306310B
:10331000FCE51F0711F5909100089A7A81E009F405
:1033200080E080935503811102C069E201C065E32A
:1033300082E997E00E94A1260DC006311C4509F0E4
:1033400045C080915503811197C369E282E997E0F6
:103350000E9476260E94532791C301159CE5190708
:1033600031F00E3D1C4591F50E94EA2687C30E946C
:103370000931FFEF04E31CE0F15000401040E1F799
:1033800000C0000081E08093E00080E28093D800DC
:103390001092C9008FE19EE40197F1F700C0000090
:1033A00087E090EBDC018093710890937208A09302
:1033B0007308B09374089CE088E10FB6F894A89560
:1033C000809360000FBE90936000FFCFF7010081F3
:1033D0001181882349F0C8010E949927D82E682FAF
:1033E000C8010E94102804C0C8010E94E527D82EF9
:1033F000B8018D2D0E948E08182F282FF701058106
:1034000002950F70A280A1101092FF078091FD0716
:10341000877099F0AA2089F080E2810F883068F0E7
:1034200082E0298798870E946D288091FD07877028
:10343000BB24B394298598858111B12CC92EC294DF
:103440008FE0C822D12CFEE0CF16D10408F0F1C2E3
:10345000F601EA5AFF4F0C940334892F807F9F7046
:10346000092F882311F00295007FAA20B9F00023CC
:1034700009F41DC280E2810F883010F0211106C0CE
:1034800090910008092B0093000805C09091FF0758
:10349000092B0093FF070E94532709C2812F298718
:1034A0000E9433312985002309F4C3C2105E0095C0
:1034B000183010F0211106C09091000809230093E4
:1034C000000805C09091FF0709230093FF070E94A1
:1034D0005327AFC2392F307F892F8F70303211F0D0
:1034E0008295807F222319F02130E9F026C0AA209E
:1034F00081F020910108002351F0013041F4982F10
:10350000922B291709F495C29093010892C2822B3D
:103510001EC0002319F0013009F48BC288870E9475
:103520004D27888524C0AA2021F0063008F081C2EA
:103530000EC0053008F07DC21AC0AA2059F0002341
:1035400031F0F701958190FFB2C19F7095830E9481
:1035500029316FC2002359F0193309F0BAC1FFEFC6
:1035600007EE23E0F15000402040E1F7B0C10E9497
:103570001E315FC2292F26952695237030E0211534
:10358000310521F02130310559F053C2AA2019F03C
:10359000812F937002C080E090E00E94B30754C274
:1035A000AA2019F0812F937002C080E090E00E9461
:1035B0009D074AC2892F837009F071C0A11040C2D3
:1035C000812F829586958770880F880F412F4F70C5
:1035D00050E060E070E02A013B01082E04C0440C7A
:1035E000551C661C771C0A94D2F714FF12C00FE01A
:1035F00010E020E030E004C0000F111F221F331F35
:103600008A95D2F7B901A8014095509560957095BB
:1036100003C040E050E0BA01969596959370292F2B
:1036200030E02230310531F123303105D1F0809185
:10363000020890910308A0910408B0910508213078
:10364000310559F044295529662977298A019B01BA
:10365000082319232A233B231FC0482A592A6A2AF0
:103660007B2ACB01BA0164297529862997290E94F2
:10367000A728E6C14429552966297729809102089F
:1036800090910308A0910408B09105088A019B015C
:10369000082719272A273B27C901B801E8CFAA2004
:1036A00019F0892F817001C08695882309F4C8C15B
:1036B000812F829586958770880F880F412F4F70D4
:1036C00050E060E070E02A013B01082E04C0440C89
:1036D000551C661C771C0A94D2F714FF12C00FE029
:1036E00010E020E030E004C0000F111F221F331F44
:1036F0008A95D2F7B901A8014095509560957095CB
:1037000003C040E050E0BA01969596959370292F3A
:1037100030E022303105F1F02330310581F1809124
:10372000F9079091FA07A091FB07B091FC072130AF
:10373000310559F044295529662977298A019B01C9
:10374000082319232A233B2317C0482A592A6A2A07
:103750007B2A15C044295529662977298091F907C4
:103760009091FA07A091FB07B091FC078A019B0199
:10377000082719272A273B27C901B80106C0CB0112
:10378000BA0164297529862997290E943E2858C1C3
:10379000092F0F70AA2039F0802F0E948628812FD0
:1037A0000E9429314DC1812F0E941E31802F0E941D
:1037B000482846C1812F223FD1F128F4203F49F00B
:1037C000213F81F16FC0233FC9F1243F09F44EC06E
:1037D00069C0AA2019F1053008F02BC1292F2F71DB
:1037E00081E090E0A0E0B0E0AC01BD0104C0440F76
:1037F000551F661F771F2A95D2F78091F907909180
:10380000FA07A091FB07B091FC078A019B010827EA
:1038100019272A273B27C901B80125C0063008F01F
:1038200008C1DCCFAA2029F0892F8F712EC0AA20D1
:10383000D9F3892F8F710E944828FBC0AA2081F0FC
:10384000292F2F7181E090E0A0E0B0E0BC01CD0114
:1038500004C0660F771F881F991F2A95D2F703C0EF
:1038600060E070E0CB010E943E28E3C0AA2081F016
:10387000192F1F71812F0E94862828E0129FC001F6
:10388000112483608093FD07812F0E948628D1C078
:1038900081E00E946D28023008F4CBC082E00E94D3
:1038A0006D28C7C0AA2039F0002309F4BDCF812FAD
:1038B0000E948F31BEC0002309F4BBCF893349F485
:1038C0003FEF87EE93E0315080409040E1F700C039
:1038D0000000812F0E943331ACC0A110B5C09F7091
:1038E000292F30E02230310509F444C03CF4211581
:1038F0003105B1F02130310561F19BC02430310533
:1039000009F47DC00CF44EC02530310509F091C09A
:103910008091560387708E7F8093560380E080C02D
:1039200020915603822F869586958695482F50E0E4
:103930004330510554F48F5F982F990F990F990FC9
:10394000822F8770892B80935603609156036160A4
:1039500048C080915603982F96959695969509F4B0
:1039600046C0915E990F990F990F8770892B8093AC
:1039700056032FC06091560360FF09C06E7F6093AD
:10398000560386E090E00E947D3380E035C06160A0
:1039900060935603613019F489E080935603609177
:1039A000560321C080915603282F269526952695EB
:1039B0002F5F2F71922F990F990F990F8770892B75
:1039C00080935603243018F08770809356038091BB
:1039D0005603887F91E009F490E06091560390FBD4
:1039E00060F96093560386E090E00E947D338091F9
:1039F00056038695869586950E940C0825C0809171
:103A000056038770886180935603887F91E009F49C
:103A100090E08091560390FB80F98093560383E0F9
:103A20000E940C086091560386E090E00E947D336E
:103A30000BC0E8E0CE1AD108F4E0CF16D10420F490
:103A40000E94C9070E94780ABB20C1F08091FD073F
:103A500080FD14C0F70112828595859585950E9499
:103A60008628C7010E9462168091FD07859585957D
:103A700085950E94482802C065E368CC29960FB658
:103A8000F894DEBF0FBECDBFDF91CF911F910F9194
:103A9000FF90EF90DF90CF90BF90AF909F907F907E
:103AA0006F905F904F9008952F923F924F925F9248
:103AB0006F927F928F929F92AF92BF92CF92DF923E
:103AC000EF92FF920F931F93CF93DF93CDB7DEB7A3
:103AD00064970FB6F894DEBF0FBECDBF49014C8B83
:103AE0005B8BE02F00E20E94D23429833A834B8320
:103AF0005C836D837E831C019501A601B7018E2F27
:103B0000912F0E94D2342F83388749875A876B8739
:103B10007C878D879E87E12CF12C00E010E02981C5
:103B20003A814B815C816D817E81C1010E94233489
:103B300000E20E94D2342F87388B2A013B01898B07
:103B40009A8BAF80B884C984DA84EB84FC840D85B9
:103B50001E8594014C895B8960E070E080E090E014
:103B60000E94233400E20E94D23459016A017B0191
:103B70008C012F853889A201B30189899A890E9415
:103B8000EE3429013A014B01888B9F87AF80B884BE
:103B9000C984DA84EB84FC840D851E8529813A81F1
:103BA0004B815C816D817E81C1010E94233459016A
:103BB0006A017B018C019201A301B40188899F8570
:103BC0000E94EE3464960FB6F894DEBF0FBECDBFF0
:103BD000DF91CF911F910F91FF90EF90DF90CF90E9
:103BE000BF90AF909F908F907F906F905F904F901D
:103BF0003F902F9008952F923F924F925F926F9235
:103C00007F928F929F92AF92BF92CF92DF92EF926C
:103C1000FF920F931F93CF93DF93CDB7DEB76197DA
:103C20000FB6F894DEBF0FBECDBF522E632E742E9A
:103C3000852E962EA72EB82EF92EA0E00E941535BF
:103C400014F01AE001C019E0A1E0A10F252D362DD6
:103C5000472D582D692D7A2D8B2D9F2D04E30E9421
:103C6000D2342B833C834D835E836F83788789872F
:103C70009A872E8737703F87252D362D472D582D53
:103C8000692D7A2D8B2D9F2D0FE30E94D234422E69
:103C9000222319F029E0322E02C09AE0392E432D5A
:103CA000032C000C550B5C874B875FEF530D5D8732
:103CB00083E0282EE0E0F0E08B2D807F888B9F2D25
:103CC0009F77998B1A1709F45CC0A1179CF49E0189
:103CD0002F5F3F4F6901EE24E3940A2F252D362DE7
:103CE000472D582D692D7A2D8B2D9F2D0E94A413C1
:103CF000FC0147C0AE014F5F5F4F6A01EE24E394C1
:103D0000012F252D362D472D582D692D7A2D8B2DE0
:103D10009F2D0E94A413FC012E853F8540E050E0BA
:103D200060E070E080E090E02F3FA7E03A074105B7
:103D30005105610571058105910509F436C120E041
:103D400030E088899989A0E00E94153509F42DC1D9
:103D500089819A818D3FBFEF9B079CF097FF03C03D
:103D6000830D815009C001962B853C8582179307EE
:103D700014F48D8501C0832D2A94A12F182F2110B2
:103D8000A1CF20E030E040E050E060E070E08B2D1B
:103D9000807F9F2D9F77A0E00E94153509F4A3C076
:103DA00029813A812E3F4FEF34070CF49CC0812FBC
:103DB000110F990B281739070CF095C04110319657
:103DC00037FF3EC0DF010D900020E9F711976A2F01
:103DD0006E1B2FEF260F662359F0CF01820F911D26
:103DE000DC013C91303321F4DC011C92622FF1CFD5
:103DF00080818183662389F0862F90E09F01280FC0
:103E0000391FD9012C9149815A81841B950B8E0F42
:103E10009F1FDC012C936150EDCF80E380838EE205
:103E2000818322E030E389819A8101969A83898394
:103E300097FF54C0DF01A20FB11D3C932F5FF3CF5A
:103E400081E0282F30E049815A8142175307DCF086
:103E5000DF01A20FB31F11969C9111979C939111B2
:103E600010C090E3282F30E049815A81DF01A20F72
:103E7000B31F421753071CF09C938F5FF3CF1C9224
:103E800002C08F5FDECF90E0893091051CF5DF0125
:103E9000A80FB91F2C912223E9F08EE28C93DF0149
:103EA0000D900020E9F71197AE1B8FEF8A0FAA2320
:103EB00049F0DF01A80FB11D9C91903321F41C92B1
:103EC000A82FF3CF8FEFDF01A80FB11D8C918E3299
:103ED00029F403C0DF01A80FB91F1C92442009F484
:103EE00064C0319762C0B42DB1703B2E40FE02C059
:103EF00015E001C016E08B819C8197709A838983BD
:103F00008F3F23E092070CF411508D5D9340853470
:103F1000910520F0115002C01150C1F0C12CD12CDC
:103F2000E12C012F252D362D472D582D692D7A2D69
:103F30008B2D9F2D0E94A413BC01FC010190002039
:103F4000E9F73197E81BF90B3B9730F7FB0182E06B
:103F50009B01280F311DD9019C91992329F09F7D48
:103F6000953411F08F5FF4CF982F9150943030F446
:103F7000332011F0891B0AC09330E1F79B01290F10
:103F8000311DD9012C91203381F3F4CF282F290F33
:103F90009F5FAB01420F511DDA012C91AB01490F1C
:103FA000511DDA012C932111F1CFCF0161960FB68B
:103FB000F894DEBF0FBECDBFDF91CF911F910F915F
:103FC000FF90EF90DF90CF90BF90AF909F908F9039
:103FD0007F906F905F904F903F902F9008952F9219
:103FE0003F924F925F926F927F928F929F92AF9289
:103FF000BF92CF92DF92EF92FF920F931F93CF93D6
:10400000DF93CDB7DEB76A970FB6F894DEBF0FBE69
:10401000CDBFE4ECF1E04F018191882321F08032A3
:10402000D1F38930C1F3982F9F7D9E3469F4F40158
:1040300091819F7D913481F492819F7D9E3461F4C2
:10404000F3E08F0E911CF2C08D3231F44FEF841AE1
:10405000940A81E08A8F06C08B3219F4EFEF8E1A32
:104060009E0A1A8E198A1A8A1B8A1C8A1D8A1E8A1F
:104070001F8A188E612C712C83E0482E512C312C14
:10408000F40180818E3239F4FFEF8F1A9F0A3110CC
:10409000CDC033243394F401F081F98F8F2F8053F6
:1040A0008A3008F05BC04CE3441651040CF04DC05C
:1040B000332019F081E0681A710829893A894B89FF
:1040C0005C896D897E89A12CB12CC12CD12CE12C6D
:1040D000F12C00E010EA8F89988D0E94541D59013F
:1040E0006A017B01B82F192FA0E00E94153519F045
:1040F000E4E04E0E511C298D30E040E050E060E0DD
:1041000070E080E090E0A0ED0E94F734EFE3F0E093
:10411000E419F5090E2F0E94B7340B2F0E94EE34DC
:10412000298B3A8B4B8B5C8B6D8B7E8B8F8B988F17
:10413000A0E00E94153571F0CE0141960E942D122B
:10414000481A510887FD539405C0311003C0FFEF92
:104150006F1A7F0A4FEF841A940A92CF1401898D47
:104160008F7D8534E1F474018FEFE81AF80AC701F6
:104170000E940B33680E791EF40181818D3211F09B
:104180008B3221F47401F2E0EF0EF11C17014FEFB6
:10419000E41AF40AF101808180538A30B8F3972D34
:1041A000990F990B8E01075F1F4F9301492F592FCC
:1041B000692F792F892F0E9497120196480E591E58
:1041C000A984BA84CB84DC84ED84FE840F851889AD
:1041D00029893A894B895C896D897E898F89988D77
:1041E0000E94541DE42E298B3A8B4B8B5C8B6D8B7C
:1041F0007E8B8F8B988FFCE04F1AFCEF5F0A690172
:10420000F52E8B019C01A2016A8DCE0101960E94C0
:104210007E0A309291072092900729813A814B8142
:104220005C816D817E818F8198850CC09092910711
:10423000809290072FEF3FEF4FEF5FEF6FEF7FEF31
:104240008FEF9FE76A960FB6F894DEBF0FBECDBF23
:10425000DF91CF911F910F91FF90EF90DF90CF9062
:10426000BF90AF909F908F907F906F905F904F9096
:104270003F902F900895FB01820FA081B18111978B
:10428000A41BB50BA55EBE4F8C93A081B181A41B6E
:10429000B50BA15DBE4F90E2980F9C93A081B181B8
:1042A000A41BB50BAC5BBE4F90E4980F9C93A08110
:1042B000B181A41BB50BA55EBE4F91E0980F9C93F6
:1042C000A081B181A41BB50BA05DBE4F91E2980FF8
:1042D0009C93A081B181A41BB50BAB5BBE4F8F5BE0
:1042E0008C93808191810197918380830895CF93EE
:1042F000DF93C0918E07D0918F078A30B1F420915F
:104300008503CE0188589340622F70E00E94CD3320
:10431000281B822F66E00E94C133C82FC15008F4C9
:104320008FC080E20E947721F9CF8D30E9F4C85820
:10433000D34020918503622F70E0CE010E94CD33DF
:10434000281B822F9E01280F311D2115344018F0A3
:1043500080E0C0E0D0E0C80FD11DC857DC4FD0933B
:104360008F07C0938E076CC096E0FE01A8E8B7E007
:1043700001900D929A95E1F7803E30F086E0FE01C3
:1043800011928A95E9F70BC0F6E08F9FB0011124D6
:104390006E587D4F46E050E0CE010E942933C09117
:1043A0008E07D0918F0746E050E0BE0188E897E085
:1043B0000E942135892B49F19E0128583340A901DB
:1043C00086E0569547958A95E1F781E090E0BC013B
:1043D00002C0660F771F4A95E2F74091860350911D
:1043E0008703462B572B2A5F3F4F66E0369527956C
:1043F0006A95E1F702C0880F991F2A95E2F7842B8E
:10440000952B90938703809386039E012258334017
:1044100040918503642F70E0C9010E94CD33481B91
:10442000463010F4240F311D211584E0380710F0B8
:1044300020E030E028573C4F30938F0720938E07C1
:10444000DF91CF910895EEECF1E08081982F9F7E6F
:10445000903219F490833197F8CF8E3211F480E2C4
:1044600080830895EF92FF920F931F93CF93DF9372
:1044700000D0CDB7DEB77C018B0164E670E088E741
:104480000E942C320E0D1F1DE016F10669F097FDFB
:104490000BC0F701849164E670E00E948332FFEF65
:1044A000EF1AFF0A009781F389839A830E940733EA
:1044B00089819A810F900F90DF91CF911F910F9179
:1044C000FF90EF900895CF92DF92FF920F931F938A
:1044D000CF93DF931F92CDB7DEB7F82E8B01998370
:1044E0000E94AD2E998181111CC0CF2CD92E0115AF
:1044F0001105B1F08091E80085FD0AC08091E800C7
:104500008E778093E8000E94AD2E882381F309C046
:10451000F60181916F018093F10001501109E7CFFD
:1045200080E00F90DF91CF911F910F91FF90DF906E
:10453000CF9008951F93CF93DF93CDB7DEB7AA979F
:104540000FB6F894DEBF0FBECDBFEDE7F3E088E015
:104550008E0F9091F10091938E13FBCF80917E038B
:10456000833009F460C030F4813071F0823009F496
:104570009AC0B1C08A3009F486C08B3009F46BC090
:10458000893009F0A8C020C080917D03813A09F0EC
:10459000A2C08091E800877F8093E800809181032A
:1045A00090918203892B21F460E289E593E003C0B6
:1045B00060E080E090E070E00E9471308091E8005F
:1045C0008B778093E80087C080917D03813209F06A
:1045D00082C08091810390918203029708F07BC092
:1045E0008091E800877F8093E8008091E80082FD59
:1045F00005C080917B038111F8CF6DC02091F3003D
:104600008091F20090E0922B029729F48091F100C2
:104610008B7F813021F48091F10080935803809149
:10462000E8008B7754C080917D03813A09F053C034
:104630008091810390918203892B09F04CC0809175
:10464000E800877F8093E8008091E80080FFFCCF3E
:1046500080911A0137C080917D038132E1F580910C
:10466000810390918203892BB1F58091E800877FC7
:104670008093E8000E94DF2E80917F0380931A01CF
:104680000E94093128C080917D03813221F58091FB
:10469000E800877F8093E8000E94DF2E80918003EE
:1046A0008093570318C080917D03813AA1F48091D3
:1046B000E800877F8093E8008091E80080FFFCCFCE
:1046C000809157038093F1008091E8008E7780936A
:1046D000E8000E94DF2E8091E80083FFD6C1809120
:1046E0007D0390917E03492F50E04A30510508F038
:1046F000CCC1FA01EC59FF4F0C940334803821F0FF
:10470000823809F0C2C108C08091790390917A0380
:10471000992389F082600FC0809181038F70873068
:1047200008F0B3C18093E9008091EB0085FB8827F6
:1047300080F91092E9009091E800977F9093E8004B
:104740008093F1001092F10074C1282F2D7F09F0A1
:104750009CC1882319F0823061F097C180917F035A
:10476000813009F092C1933009F080E080937A03A0
:104770002EC080917F0381112AC0809181038F70A8
:104780002FEF280F263008F080C18093E900209198
:10479000EB0020FF1CC0933021F48091EB0080627D
:1047A00014C09091EB0090619093EB0021E030E019
:1047B000A90102C0440F551F8A95E2F74093EA0011
:1047C0001092EA008091EB0088608093EB001092D9
:1047D000E9008091E800877F2FC1811156C11091B7
:1047E0007F031F778091E3008078812B8093E30023
:1047F0008091E800877F8093E8000E94DF2E8091FF
:10480000E80080FFFCCF8091E30080688093E300A4
:10481000111102C082E001C083E080937B0335C1A7
:104820008058823008F031C180917F0390918003DD
:104830008C3D53E0950779F583E08A838AE289838A
:104840004FB7F894DE01139620E03EE051E2E32FEB
:10485000F0E050935700E49120FF03C0E295EF7021
:104860003F5FEF708E2F90E0EA3010F0C79601C0E6
:10487000C0968D939D932F5F243149F74FBF809150
:10488000E800877F8093E8006AE270E0CE0101963D
:104890000E947130BDC04091810350918203292F45
:1048A000332723303105B9F06CF42130310509F498
:1048B000FBC02230310509F0E8C08BE390E0EBE06B
:1048C000F2E054C02132310509F433C022323105FF
:1048D00009F43CC0DAC0992781309105D1F05CF42D
:1048E000892B09F0D2C0EEE6F2E0E4918E2F90E041
:1048F000EEE6F2E038C08230910599F0039709F0B6
:10490000C4C0E8E5F2E0E4918E2F90E0E8E5F2E043
:104910002AC0E6E6F2E0E4918E2F90E0E6E6F2E0CF
:1049200022C0EEE5F2E0E4918E2F90E0EEE5F2E0B9
:104930001AC04115510509F4BCC04130510509F0B8
:10494000A4C089E090E0E6E3F2E010C04115510513
:1049500009F4B4C04130510509F097C081E790E0F7
:10496000EAE5F1E003C0009709F48FC02091E80068
:10497000277F2093E8002091830330918403281738
:10498000390708F4C90140E0009789F120917B03C1
:10499000222309F43DC02530D9F12091E80023FD00
:1049A00037C02091E80022FD2FC02091E80020FFB1
:1049B000EBCF4091F3002091F20030E0342B0097D0
:1049C00059F02830310540F444914093F10031967C
:1049D00001972F5F3F4FF3CF41E02830310509F0B9
:1049E00040E02091E8002E772093E800CDCF4111E0
:1049F000CDCF0AC080917B03882351F0853041F0F0
:104A00008091E80083FD04C08091E80082FFF2CF2E
:104A10008091E8008B778093E80037C08038A9F553
:104A20008091E800877F8093E80080917C038093E9
:104A3000F1008091E8008E778093E8000E94DF2EDD
:104A400024C0811122C010917F031230F0F48091B4
:104A5000E800877F8093E80010937C030E94DF2E9C
:104A6000111106C08091E30087FD02C081E001C002
:104A700084E080937B0342E061EC81E00E94FE2EA3
:104A800042E261EC82E00E94FE2E8091E80083FF0A
:104A90001AC08091E800877F8093E8008091EB0046
:104AA00080628093EB000FC082E190E0E6E4F2E0E8
:104AB0005DCF89E090E0EDE1F2E058CF80E490E056
:104AC000EBECF1E053CFAA960FB6F894DEBF0FBE21
:104AD000CDBFDF91CF911F91089508958091580324
:104AE0000895CF93DF9320917B032430E1F520914B
:104AF0001A01222339F020910A0827FF03C060E23F
:104B000022E002C068E021E02093E9002FEF30911D
:104B1000E800215035FD06C035ED3A95F1F700006B
:104B20002111F5CF2091E80025FF1DC0EC018091F7
:104B30001A01811105C040E050E068E070E003C058
:104B400070E040E050E0CE010E9463228091E800D6
:104B50008E778093E80080E2FE01A9E5B3E0019042
:104B60000D928A95E1F7DF91CF910895CF93DF936E
:104B700000D01F92CDB7DEB790917B03943019F52A
:104B800089837B836A8382E08093E9008FEF909131
:104B9000E800815095FD06C095ED9A95F1F700006B
:104BA0008111F5CF8091E80085FF0DC040E050E015
:104BB00063E070E0CE0101960E9463228091E800DC
:104BC0008E778093E8000F900F900F90DF91CF9138
:104BD000089578941F920F920FB60F9211248F931D
:104BE0009F93AF93BF938091060890910708A0917F
:104BF0000808B09109080196A11DB11D809306080F
:104C000090930708A0930808B0930908BF91AF914B
:104C10009F918F910F900FBE0F901F901895CF927C
:104C2000DF92EF92FF920F931F932FB7F89440916A
:104C300006085091070860910808709109082FBF75
:104C40006A017B01EE24FF248C0120E030E0C016D5
:104C5000D106E206F30610F4415051099A01281BCF
:104C6000390BC9011F910F91FF90EF90DF90CF900A
:104C700008952FB7F8946091060870910708809105
:104C80000808909109082FBF08952FB7F8948091D4
:104C9000060890910708A0910808B09109082FBF55
:104CA00008951F920F920FB60F9211248F939F9326
:104CB000AF93BF938091060890910708A0910808D0
:104CC000B09109084196A11DB11D809306089093EB
:104CD0000708A0930808B0930908BF91AF919F916E
:104CE0008F910F900FBE0F901F90189520911A0171
:104CF000222321F020910A0827FD04C0FC013296EE
:104D0000089619C0262F2695269526952E31C0F493
:104D1000FC01E20FF11D677081E090E001C0880F97
:104D20006A95EAF780959281892382830895319666
:104D3000E817F90729F020812613F9CF1082F7CF61
:104D4000089520911A01222321F020910A0827FDBD
:104D500005C0FC0132962FEF30E019C0262F2695B2
:104D6000269526952E3120F5FC01E20FF11D677086
:104D700081E090E001C0880F6A95EAF79281892B63
:104D8000828308952F3F39F03F5F363041F04191E3
:104D90004613F8CF0DC04111F7CF232FF5CF2F3F8A
:104DA00039F0FC01E20FF11D27FDFA9562830895A9
:104DB0000895CF9384E090E00E946F33C82F81E282
:104DC00090E00E946F332C2F30E0A901582BCA01CC
:104DD000CF9108956CEE7EEF80E090E00E949B33CF
:104DE00060E082E090E00E947D3360E083E090E04C
:104DF0000E947D331092020810920308109204085A
:104E00001092050860E084E090E00E947D3360E04D
:104E100081E290E00E947D3360E085E090E00E94B6
:104E20007D3360E086E090E00E947D336FEF87E0A5
:104E300090E00E947D3340E050E0BA0188E090E0CD
:104E40000E948F3360E08DE090E00E947D3340E06F
:104E500050E0BA0188E190E00E948F3360E087E182
:104E600090E00E947D3340E050E0BA018CE190E098
:104E70000E948F3360E080E290E00E947D3340E04A
:104E800050E0BA018FE090E00E948F3340E050E0A4
:104E9000BA0183E190E00C948F3380910108811175
:104EA0001092010808959091FF0780910008892BC6
:104EB0002091FE07982F922B9093920780910108E2
:104EC0008823D9F0892B8093920780911A01882337
:104ED00031F080910A0887FF02C08EE101C086E0B0
:104EE000E4E9F7E090E0815028F021912223D9F302
:104EF0009F5FF9CF91110E944D27E0910C08F0912E
:104F00000D083097A9F080911A01882359F08091FB
:104F10000A0887FF07C0809192078093930785E076
:104F2000809392070280F381E02D82E997E0099453
:104F30000895BF92CF92DF92EF92FF920F931F934B
:104F4000CF93DF938C01C0900208D0900308E090CB
:104F50000408F09005088091F9079091FA07A09154
:104F6000FB07B091FC07C82AD92AEA2AFB2ACFE11D
:104F7000D0E0D701C6010C2E04C0B695A795979531
:104F800087950A94D2F780FF07C0BC2EB8018C2FFA
:104F90000E948E08019719F4219758F7B12C8B2D98
:104FA000DF91CF911F910F91FF90EF90DF90CF9005
:104FB000BF900895CF93DF93EC010E949927BE0123
:104FC0000E948E08DF91CF910895990F990F890F54
:104FD000682F669566956695982F977085E0689F0F
:104FE000B001112440E050E080E0FA01E60FF71F25
:104FF000E651F84F208130E0092E02C03695279502
:105000000A94E2F721703327042E01C0220F0A947C
:10501000EAF7822B4F5F5F4F4530510531F7089516
:10502000990F990F890FA82FA695A695A695877019
:1050300051E001C0550F8A95EAF785E0A89FD0019D
:10504000112420E030E070E0F901EA0FFB1FE65187
:10505000F84F4081CB01022E02C0969587950A94A5
:10506000E2F781709927819584278523842780839F
:105070002F5F3F4F2530310539F708956093F907C9
:105080007093FA078093FB079093FC070C94FB3016
:105090000F931F9341E050E060E070E004C0440FC4
:1050A000551F661F771F8A95D2F7409550956095DA
:1050B00070958091F9079091FA07A091FB07B09144
:1050C000FC078A019B01082319232A233B23C901DA
:1050D000B8011F910F910C943E282091FD078095F7
:1050E00082238093FD07982F977079F430E0482F42
:1050F000082E000C550B2417350739F0859585953A
:1051000085950E9448281092FD0708950F931F93DC
:1051100041E050E060E070E004C0440F551F661F9E
:10512000771F8A95D2F78091F9079091FA07A0919D
:10513000FB07B091FC078A019B01082B192B2A2B36
:105140003B2BC901B8011F910F910C943E2860932D
:1051500002087093030880930408909305080C9448
:10516000FB308091E9079091B807891719F08F5F9C
:105170008770FBCF08958091B70782958F7009F0F3
:1051800054C08091B407882309F44FC08091E90787
:10519000A091B8076091B2077091B3074091B5072D
:1051A0005091B607B6E08A1709F43FC090E0411568
:1051B0005105C1F17F3F11F46F3FA1F1B89FF0019C
:1051C000B99FF00D1124E754F84F218172132AC0C2
:1051D0002081621327C02281211124C023813481C0
:1051E0002417350710F421503109241B350B283CB6
:1051F0003105C0F42091B7072F7020612093B707C5
:1052000026E0289FF001299FF00D1124E254F84F69
:1052100080818F708061808382EB97E00E946216AC
:105220000C94B12801968770BECF0895BF92CF929B
:10523000DF92EF92FF920F931F93CF93DF93CDB73F
:10524000DEB761970FB6F894DEBF0FBECDBF8C01FD
:1052500085E0F801DE011D9601900D928A95E1F737
:10526000D8013C9111962C9111971296EC901297BF
:105270001396CD90DC9014975091B2076091B307CC
:105280008091B5079091B607009709F44FC16F3F21
:1052900019F45F3F09F44AC1B090B407BB2009F488
:1052A000ECC04091B707C816D90628F0F601E81BF4
:1052B000F90BCF0104C0809590958C0D9D1DFF24A6
:1052C000F394883C910548F0F12C407F09F09FC091
:1052D00082EB97E00E94621621C1842F807F09F043
:1052E00044C0621312C0531310C0E1100EC04F70BF
:1052F00040614093B70782EB97E00E94621680916D
:10530000B707D80115968C932EC0CD2819F12F3FE1
:1053100011F43F3FF9F0FE2CE1101CC08091E90729
:105320004091B80756E0841709F458C090E0589FA0
:10533000F001599FF00D1124E754F84F61812613B5
:1053400006C06081361303C06281611103C00196FB
:105350008770E9CFFE2CEE2009F415C18091B707C4
:1053600081608093B707F12C0EC162130AC05313FA
:1053700008C0E11006C08091B707D80115968C933C
:10538000B0C03D872E878D859E850E94D4308823AE
:10539000D1F1EE20C1F12091B707822F82958F7055
:1053A00090E0029774F08091B2079091B3079887CC
:1053B0008F831986DB86CA862C87CE0107960E94CA
:1053C000621686E0F801A2EBB7E001900D928A9593
:1053D000E1F70E94BB28FF24F394D5C03D872E87B8
:1053E0008D859E850E94DA27292F22952F7030E027
:1053F000223031050CF0BBC09F7009F0B5C0805E53
:10540000883008F4C0C0C8010E946216E4CF62135D
:1054100014C0531312C0E11010C08091B707F801F7
:105420008583C8010E94621686E0E2EBF7E0DF01A7
:105430001D928A95E9F7FB2CA6C03D872E878D85A6
:105440009E850E94D4308823F1F2EE20E1F2209173
:10545000B707822F82958F7090E002970CF4B1CF3E
:105460008091B2079091B3079A8389831B82DD8272
:10547000CC822E83CE010196A2CFC816D90638F071
:10548000C81AD90AB8ECCB16D10450F007C08095E1
:1054900090958C0D9D1D883C910510F0F12C3EC01F
:1054A000FE2CEE2009F4AFCF621327C0531325C0A2
:1054B0002091B70720FD18C0822F82958F70482F4A
:1054C00050E04115510581F0F80125834F30510519
:1054D00041F08F5F982F9295907F822F8F70892B4C
:1054E0008583C8010E94621686E0F801A2EBB7E04E
:1054F00001900D928A95E1F746C03D872E878D85F4
:105500009E850E94D43081115CCF8091B707816065
:105510008093B707C8010E94621635C0E2EBF7E03E
:1055200086E0DF011D928A95E9F72DC0EE2009F48F
:105530006ACF3D872E878D859E850E94D430F82EB8
:10554000882309F460CF86E0F801A2EBB7E0019070
:105550000D928A95E1F78091B2079091B3070E946E
:10556000DA270E94BB280FC0811149CF0CC024301C
:1055700031050CF048CF9F7009F441CFF8019581B7
:10558000907F09F03CCF8F2D61960FB6F894DEBF67
:105590000FBECDBFDF91CF911F910F91FF90EF9084
:1055A000DF90CF90BF90089520917B03243021F4A9
:1055B000BC0184E00C94B6250895BC0160587109C3
:1055C00083E00C94B625CF93DF93CDB7DEB72F974A
:1055D0000FB6F894DEBF0FBECDBF84B7877F84BF00
:1055E0000FB6F894A8958091600088618093600060
:1055F000109260000FBE90E080E80FB6F8948093A0
:105600006100909361000FBE85B7806885BF85B744
:10561000806885BF0E948E2E0E94332F8091E20009
:1056200084608093E200789480917B038823A1F0CA
:105630001091E9001F709091EC00892F817090FD0E
:1056400080E8182B1092E9008091E80083FD0E9409
:105650009A221F701093E90082E084BD93E095BD0B
:105660009AEF97BD80936E00A4E4B2E041E050E071
:1056700026E02A0F8D91E82FE295EF70F0E031A13E
:105680008F70BA0102C0660F771F8A95E2F7CB01CF
:10569000962F9095932391A392A1892B82A32A13ED
:1056A000E9CFAAE4B2E041E050E024E02A0F8D9176
:1056B000E82FE295EF70F0E031A18F70BA0102C0DF
:1056C000660F771F8A95E2F7CB01962F909593236B
:1056D00091A392A1892B82A32A13E9CFAAE1B8E072
:1056E000E4E1F8E016E0E12EEE0E11921D92EE12CA
:1056F000FCCF80E090E00E9477338C3E9E4F11F00B
:105700000E94EA26259A2D9882E88093800089E1FC
:10571000809381008FEF9FEF9093870080938600A6
:105720000E94680853985B9A52985A9A89B183FBF1
:10573000882780F94A9902C090E001C092E0892B45
:10574000809313081092600880E8809385030E947C
:1057500026326DE070E085EC97E00E943222892BC2
:1057600089F58091600863E070E081FD28C082ECDB
:1057700097E00E943222892B29F56DE070E082EBE0
:1057800097E00E943222892BE9F40E943926DC013D
:10579000CB01805A9541AF4FBF4F809362089093E1
:1057A0006308A0936408B09365080E94F70781E03E
:1057B00080936708809366081092610803C08FEB9E
:1057C00097E0D7CF80E090E00E9477338C3E9E4FE9
:1057D00011F00E94EA2682E090E00E946F338093ED
:1057E00069080E94D92690930B0880930A0883E0E9
:1057F00090E00E946F33682F70E080E090E00E949C
:10580000A7280E94680887ED91E090930D08809387
:105810000C08AA24A394B12C86E692E0B8E0B80F55
:10582000BD87F7E06F2EE4E12E2EE8E03E2E64E423
:1058300072E0F12C6101F10180801082DB018D9119
:10584000BD01E82FE295EF70F0E021A18F70A50176
:1058500002C0440F551F8A95E2F7CA01242B21A3E9
:1058600022A1942E9094292122A350EA5A95F1F76F
:105870000AE412E040E050E0D8017D908D01272D30
:1058800022952F7030E0D90190962C91D1015C9037
:1058900030E0B72DBF7002C035952795BA95E2F775
:1058A00020FD07C02A2D042E01C0220F0A94EAF71A
:1058B00001C020E0522AD1015C924F5F5F4F44301B
:1058C0005105D1F691A1992291A292A1892B82A38F
:1058D000BFEF2B1A3B0A81E0F6019081891201C0CB
:1058E00080E0F82AE210A6CF49F081E0809310080A
:1058F0000E94452690930F0880930E08809110080F
:10590000882311F180910E0890910F080E940F26B4
:105910000697D0F08091140880931A08809115089A
:1059200080931B088091160880931C0880911708AB
:1059300080931D088091180880931E088091190893
:1059400080931F081092100880911308E82FEE0F23
:10595000EE0FE093130889B183FB882780F98B87CA
:105960001C864A9903C080E090E002C082E090E08B
:105970002B853C85822B932B8E2B809313088F7065
:10598000E82FF0E0E25BFD4F908180911208890FD3
:1059900080931208843044F0809111088F5F8093C7
:1059A000110889EA0E941332809112088D3F44F455
:1059B000809111088150809311088AEA0E94133265
:1059C00080911208837887FF03C081508C6F8F5FAE
:1059D00080931208EAE6F8E0AAE1B8E000E010E0FF
:1059E000302F2D919191922721F180E0DD24D394E5
:1059F0004D2D4923D1F089833A832D2181E009F48B
:105A000080E08B830E9445268160782F9D838C8364
:105A100049815A816B818D810E940807F801E659FE
:105A2000F74F8081D826D08219C08F5FDD0C84307B
:105A3000F9F60F5F1F4F0630110591F68FEF8E8339
:105A40008F8318860E9445268160782F9A878987E0
:105A50004E815F8168858A850E940807809167086A
:105A6000882309F406C188E893E090938F07809318
:105A70008E0720918603309187032115310509F4A3
:105A8000D8C0809161088111D4C0282E312C6501C5
:105A9000082E02C0CC0CDD1C0A94E2F7A6014223BA
:105AA0005323452B11F48F5FF0CF90916008910143
:105AB00076E0220F331F7A95E1F790FD13C08295AF
:105AC000880F880F80748093D201220F232F221F0A
:105AD000330B31952093D501815C8093D3011092D3
